:020000040000FA
:100000000C9462000C948A000C948A000C948A0070
:100010000C948A000C948A000C948A000C948A0038
:100020000C948A000C948A000C948A000C948A0028
:100030000C948A000C948A000C948A000C948A0018
:100040000C9459040C948A000C94C9040C94A304D5
:100050000C948A000C948A000C948A000C948A00F8
:100060000C948A000C948A000000000024002700F1
:100070002A0000000000250028002B0000000000DE
:1000800023002600290004040404040404040202DA
:100090000202020203030303030301020408102007
:1000A0004080010204081020010204081020000012
:1000B0000008000201000003040700000000000027
:1000C0000000A40511241FBECFEFD8E0DEBFCDBFD6
:1000D00015E0A0E0B1E0E2EBFBE002C005900D927C
:1000E000A23CB107D9F726E0A2ECB5E001C01D9211
:1000F000A836B207E1F710E0C2E6D0E004C02197CD
:10010000FE010E94D105C136D107C9F70E94FB0448
:100110000C94D7050C940000833081F028F48130D2
:1001200099F08230A9F008958730A9F08830C9F09D
:100130008430B1F4809180008F7D03C08091800075
:100140008F7780938000089584B58F7784BD08955C
:1001500084B58F7DFBCF8091B0008F778093B00006
:1001600008958091B0008F7DF9CF1F93CF93DF93D7
:10017000282F30E0F901E255FF4F8491F901E6564E
:10018000FF4FD491F901EA57FF4FC491CC23A9F056
:10019000162F81110E948C00EC2FF0E0EE0FFF1F54
:1001A000EE58FF4FA591B4918FB7F894EC911111CF
:1001B00008C0D095DE23DC938FBFDF91CF911F91D4
:1001C0000895DE2BF8CFCF93DF9390E0FC01E65645
:1001D000FF4F24918A579F4FFC0184918823D1F0CF
:1001E00090E0880F991FFC01E859FF4FA591B49149
:1001F000FC01EE58FF4FC591D49161110EC09FB71D
:10020000F8948C91E22FE0958E238C932881E22341
:10021000E8839FBFDF91CF9108958FB7F894EC9159
:10022000E22BEC938FBFF6CF3FB7F8948091640632
:1002300090916506A0916606B091670626B5A89BC9
:1002400005C02F3F19F00196A11DB11D3FBFBA2F68
:10025000A92F982F8827BC01CD01620F711D811D28
:10026000911D42E0660F771F881F991F4A95D1F7AD
:1002700008958F929F92AF92BF92CF92DF92EF92AA
:10028000FF924B015C010E9414016B017C010E94F2
:1002900014016C197D098E099F09683E7340810520
:1002A0009105A8F321E0821A9108A108B10888EE0F
:1002B000C80E83E0D81EE11CF11C81149104A10436
:1002C000B10429F7FF90EF90DF90CF90BF90AF90EF
:1002D0009F908F900895DF92EF92FF920F931F935C
:1002E000CF93DF9361E08DE00E94B50061E08CE088
:1002F0000E94B50061E08BE00E94B50061E08AE0F9
:100300000E94B50002EC15E0C9E0D0E0EC2E60E000
:100310008C2F0E94E300FE01E255FF4F8491FE0105
:10032000E656FF4FD490FE01EA57FF4FF490FF20AE
:1003300009F4ABC081110E948C00EF2DF0E0EE0FAC
:10034000FF1FE458FF4FA591B491EC91DE2291E09C
:1003500080E009F490E0F8019083818361E08E2DC4
:100360000E94E300219702501109C130D10509F024
:10037000CDCF03E010E09BE8E92EFF24F394C0E02A
:10038000D4E061E08DE00E94B50061E08CE00E9465
:10039000B50061E08BE00E94B50061E08AE00E9458
:1003A000B500688189E00E94B5006A8188E00E94FA
:1003B000B5006C8187E00E94B5006E8186E00E94E6
:1003C000B500688585E00E94B5006A8584E00E94DA
:1003D000B5006C8583E00E94B5006E8582E00E94C6
:1003E000B50060E080E10E94B500C7010197F1F718
:1003F00061E080E10E94B5006DE270E080E090E095
:100400000E9439016096F5E0C03BDF0709F0B9CFE3
:100410000150110909F0B3CF61E08DE00E94B500F1
:1004200061E08CE00E94B50061E08BE00E94B500C5
:1004300061E08AE00E94B50004EC15E0C9E083E2C7
:10044000E82EF12C02501109F80160818C2F0E94D6
:10045000B50060E080E10E94B500C7010197F1F7A7
:1004600061E080E10E94B5006AE070E080E090E029
:100470000E943901C150C13029F7DF91CF911F91FE
:100480000F91FF90EF90DF90089590E080E063CFB0
:10049000AF92BF92CF92DF92EF92FF920F931F9392
:1004A000CF93DF936C017B018B01040F151FEB01D0
:1004B0005E01AE18BF08C017D10759F06991D60187
:1004C000ED91FC910190F081E02DC6010995892BF9
:1004D00079F7C501DF91CF911F910F91FF90EF90B8
:1004E000DF90CF90BF90AF900895FC01538D448D65
:1004F000252F30E0842F90E0821B930B541710F0CF
:10050000CF96089501970895FC01918D828D9817DB
:1005100061F0A28DAE0FBF2FB11D5D968C91928DB3
:100520009F5F9F73928F90E008958FEF9FEF0895E4
:10053000FC01918D828D981731F0828DE80FF11DAD
:10054000858D90E008958FEF9FEF0895FC01918DC8
:10055000228D892F90E0805C9F4F821B91098F73C1
:100560009927089582EC95E00E94A60221E0892B4C
:1005700009F420E0822F089580E090E0892B29F093
:100580000E94B20281110C9400000895FC01A48D18
:10059000A80FB92FB11DA35ABF4F2C91848D90E0A5
:1005A00001968F739927848FA689B7892C93A08988
:1005B000B1898C91837080648C93938D848D981312
:1005C00006C00288F389E02D80818F7D80830895A5
:1005D000EF92FF920F931F93CF93DF93EC0181E093
:1005E000888F9B8D8C8D98131AC0E889F98980813A
:1005F00085FF15C09FB7F894EE89FF896083E8896D
:10060000F98980818370806480839FBF81E090E05E
:10061000DF91CF911F910F91FF90EF900895F62EEB
:100620000B8D10E00F5F1F4F0F731127E02E8C8D85
:100630008E110CC00FB607FCFACFE889F9898081CA
:1006400085FFF5CFCE010E94C602F1CFEB8DEC0FF6
:10065000FD2FF11DE35AFF4FF0829FB7F8940B8FE7
:10066000EA89FB8980818062CFCFCF93DF93EC0151
:10067000888D8823B9F0AA89BB89E889F9898C918A
:1006800085FD03C0808186FD0DC00FB607FCF7CF46
:100690008C9185FFF2CF808185FFEDCFCE010E9446
:1006A000C602E9CFDF91CF910895EF92FF920F93A9
:1006B0001F93CF93DF93EC018C0100581E4F83E210
:1006C000E82EF12C68818DE00E94B5006A818CE0F3
:1006D0000E94B5006C818BE00E94B5006E818AE0BB
:1006E0000E94B500688589E00E94B5006A8588E0AF
:1006F0000E94B5006C8587E00E94B5006E8586E09B
:100700000E94B500688985E00E94B5006A8984E08E
:100710000E94B5006C8983E00E94B5006E8982E07A
:100720000E94B50060E080E10E94B500C70101971A
:10073000F1F761E080E10E94B50066E970E080E0D9
:1007400090E00E9439016896C017D10709F0BACF2E
:10075000DF91CF911F910F91FF90EF90089561E08D
:100760008FE00E94B50060E08EE00E94B50061E07D
:1007700081E10E94B50060E081E10E94B5006AE07D
:1007800070E080E090E00E94390160E08FE00E941C
:10079000E30060E08EE00E94E30060E080E10E9400
:1007A000E30060E081E10E94E30060E082E00E94FB
:1007B000E30060E083E00E94E30060E084E00E94E8
:1007C000E30060E085E00E94E30060E086E00E94D4
:1007D000E30060E087E00E94E30060E088E00E94C0
:1007E000E30060E089E00E94E30060E08AE00E94AC
:1007F000E30060E08BE00E94E30060E08CE00E9498
:10080000E30060E08DE00C94E30061E08FE00E9483
:10081000B50061E08EE00E94B50061E080E10E94D9
:10082000B50061E081E10E94B50061E08FE00E94C7
:10083000E30061E08EE00E94E30061E080E10E945D
:10084000E30061E081E10E94E30061E082E00E9458
:10085000E30061E083E00E94E30061E084E00E9445
:10086000E30061E085E00E94E30061E086E00E9431
:10087000E30061E087E00E94E30061E088E00E941D
:10088000E30061E089E00E94E30061E08AE00E9409
:10089000E30061E08BE00E94E30061E08CE00E94F5
:1008A000E30061E08DE00E94E30060E08FE00C94E3
:1008B000B5001F920F920FB60F9211242F933F9302
:1008C0008F939F93AF93BF93809160069091610641
:1008D000A0916206B091630630915F0623E0230F7A
:1008E0002D3758F50196A11DB11D20935F06809309
:1008F000600690936106A0936206B09363068091B0
:10090000640690916506A0916606B091670601960F
:10091000A11DB11D8093640690936506A0936606A1
:10092000B0936706BF91AF919F918F913F912F91A7
:100930000F900FBE0F901F90189526E8230F029678
:10094000A11DB11DD2CF1F920F920FB60F9211248D
:100950002F933F934F935F936F937F938F939F93C7
:10096000AF93BF93EF93FF9382EC95E00E94C60292
:10097000FF91EF91BF91AF919F918F917F916F9177
:100980005F914F913F912F910F900FBE0F901F904D
:1009900018951F920F920FB60F9211242F938F93D9
:1009A0009F93EF93FF93E091D205F091D30580815F
:1009B000E091D805F091D90582FD1BC0908180910E
:1009C000DB058F5F8F732091DC05821741F0E0918A
:1009D000DB05F0E0EE53FA4F958F8093DB05FF9136
:1009E000EF919F918F912F910F900FBE0F901F90BD
:1009F00018958081F4CF789484B5826084BD84B5E5
:100A0000816084BD85B5826085BD85B5816085BD09
:100A100080916E00816080936E00109281008091C1
:100A20008100826080938100809181008160809349
:100A30008100809180008160809380008091B1006E
:100A400084608093B1008091B00081608093B00099
:100A500080917A00846080937A0080917A0082602D
:100A600080937A0080917A00816080937A008091EF
:100A70007A00806880937A001092C100E091D205DC
:100A8000F091D30582E08083E091CE05F091CF050F
:100A90001082E091D005F091D10580E18083109221
:100AA000DA05E091D605F091D70586E08083E091E4
:100AB000D405F091D505808180618083E091D405D3
:100AC000F091D505808188608083E091D405F09114
:100AD000D505808180688083E091D405F091D505AB
:100AE00080818F7D80836CE271E080E090E00E94E5
:100AF0003901C0E0D0E00E94050480E892E00E9445
:100B000055030E946B010E94AF0360E67AEE80E01D
:100B100090E00E9439010E94050480E091E00E946B
:100B200055030E946B010E94AF0360E47EE785E0FD
:100B300090E00E9439012097F1F20E94B2028823CE
:100B4000D1F20E940000D7CFE2ECF5E013821282CE
:100B500088EE93E0A0E0B0E084839583A683B7831A
:100B600084EB95E09183808385EC90E09587848782
:100B700084EC90E09787868780EC90E0918B808B67
:100B800081EC90E0938B828B82EC90E0958B848B50
:100B900086EC90E0978B868B118E128E138E148EBE
:100BA0000895EE0FFF1F0590F491E02D0994F8943D
:100BB000FFCF000000000000000000000000010066
:100BC0000000010001000100010000000000000021
:100BD0000100010001000100000000000000000011
:100BE0000000000000000100000000000100010002
:100BF00001000000010000000000000000000100F2
:100C000001000000010000000000000000000000E2
:100C100000000000010000000000000000000100D2
:100C200001000100010001000100000001000000BE
:100C300001000100010001000000000000000000B0
:100C400000000000010001000000010000000000A1
:100C50000000000000000000000000000100010092
:100C60000100000001000000000000000100000081
:100C70000000010000000000000000000000000073
:100C80000000000000000000000001000000000063
:100C90000100000000000000000000000000000053
:100CA0000000010000000100000000000000000042
:100CB0000000000000000000000001000000010032
:100CC0000100000000000000000000000000000023
:100CD0000000010001000000000000000000000012
:100CE0000000000000000000000001000100000002
:100CF00001000000000000000000000000000000F3
:100D000000000100010001000000000000000000E0
:100D100000000000000000000000010001000100D0
:100D200001000000000000000000000000000000C2
:100D300001000000000000000000000001000100B0
:100D400000000000000000000100000000000000A2
:100D5000010000000100000001000100010001008D
:100D60000000000000000100000000000100010080
:100D70000000000000000000000000000000010072
:100D8000010000000000010000000100010001005E
:100D90000000000001000000000000000100000051
:100DA000010001000100010001000000010000003D
:100DB000010000000100010001000000000000002F
:100DC000000000000100010000000100010001001E
:100DD0000000000000000000000000000100010011
:100DE00001000000000000000100010001000100FE
:100DF00000000100000000000000000001000000F1
:100E000001000100010000000100010000000000DD
:100E100001000000000000000100010001000100CD
:100E200001000100000001000000000001000000BE
:100E300001000100010001000000010000000100AC
:100E4000010000000000000001000100010000009E
:100E5000010001000100000000000000010000008E
:100E6000000000000000010001000100010000007E
:100E70000100000000000000000000000000000071
:100E8000000001000100010000000000000000005F
:100E9000000000000000000000000100010001004F
:100EA0000100000000000000000000000000000041
:100EB0000000000000000000000000000000000032
:100EC0000100000000000000000000000000010020
:100ED000010000000000000000000000010001000F
:100EE00001000000000000000000010001000100FE
:100EF00001000000000000000100010001000100ED
:100F000001000000000001000100010001000100DB
:100F100000000000010001000100010001000000CC
:100F200000000100010001000100010000000000BC
:100F300000000100010001000100000000000000AD
:100F4000000001000100010000000000000000009E
:100F5000000001000100000000000000000000008F
:100F60000000010000000000000000000000000080
:100F70000000000000000000000000000000000071
:100F80000000010000000000000000000000000060
:100F9000000001000100000000000000000000004F
:100FA000000001000100010000000000000000003E
:100FB000000001000100010001000000000000002D
:100FC000000001000100010001000100000000001C
:100FD000000000000100010001000100010000000C
:100FE00000000000000001000100010001000100FC
:100FF00000000000000000000100010001000100ED
:1010000001000000000000000000010001000100DC
:1010100001000000000000000000000001000100CD
:1010200001000000000000000000000000000100BE
:1010300001000000000000000000000000000000AF
:10104000010000000000000000000000000000009F
:101050000000000000000000000000000000000090
:10106000000000000000E802480275023503A602F5
:04107000840298025C
:107E0000112484B714BE81FFF0D085E080938100F7
:107E100082E08093C00088E18093C10086E0809377
:107E2000C20080E18093C4008EE0C9D0259A86E02C
:107E300020E33CEF91E0309385002093840096BBD3
:107E4000B09BFECF1D9AA8958150A9F7CC24DD24C4
:107E500088248394B5E0AB2EA1E19A2EF3E0BF2EE7
:107E6000A2D0813461F49FD0082FAFD0023811F036
:107E7000013811F484E001C083E08DD089C08234E0
:107E800011F484E103C0853419F485E0A6D080C0E4
:107E9000853579F488D0E82EFF2485D0082F10E0AE
:107EA000102F00270E291F29000F111F8ED06801E7
:107EB0006FC0863521F484E090D080E0DECF843638
:107EC00009F040C070D06FD0082F6DD080E0C81688
:107ED00080E7D80618F4F601B7BEE895C0E0D1E017
:107EE00062D089930C17E1F7F0E0CF16F0E7DF06D8
:107EF00018F0F601B7BEE89568D007B600FCFDCFD4
:107F0000A601A0E0B1E02C9130E011968C91119780
:107F100090E0982F8827822B932B1296FA010C0160
:107F200087BEE89511244E5F5F4FF1E0A038BF0790
:107F300051F7F601A7BEE89507B600FCFDCF97BE46
:107F4000E89526C08437B1F42ED02DD0F82E2BD052
:107F50003CD0F601EF2C8F010F5F1F4F84911BD097
:107F6000EA94F801C1F70894C11CD11CFA94CF0C13
:107F7000D11C0EC0853739F428D08EE10CD085E9AC
:107F80000AD08FE07ACF813511F488E018D01DD067
:107F900080E101D065CF982F8091C00085FFFCCF94
:107FA0009093C60008958091C00087FFFCCF809118
:107FB000C00084FD01C0A8958091C6000895E0E648
:107FC000F0E098E1908380830895EDDF803219F02E
:107FD00088E0F5DFFFCF84E1DECF1F93182FE3DFCA
:107FE0001150E9F7F2DF1F91089580E0E8DFEE27F6
:047FF000FF270994CA
:027FFE00040479
:00000001FF
